:100000008FC0000095C0000093C0000091C00000A8
:100010008FC000008DC000008BC0000089C00000B0
:1000200087C0000085C0000083C0000081C00000C0
:100030007FC000007DC000007BC0000079C00000D0
:1000400077C0000075C0000073C0000071C00000E0
:100050006FC000006DC000006BC0000069C00000F0
:1000600067C0000065C0000063C0000061C0000000
:100070005FC000005DC000005BC0000059C0000010
:1000800057C0000055C0000053C0000051C0000020
:100090004FC000004DC000004BC0000049C0000030
:1000A00047C0000045C0000043C0000041C0000040
:1000B0003FC000003DC000003BC0000039C0000050
:1000C00037C0000035C0000033C0000031C0000060
:1000D0002FC000002DC000002BC0000029C0000070
:1000E00027C0000025C0000023C0000021C0000080
:1000F0001FC000001DC000001BC0000019C0000090
:1001000017C0000015C0000013C0000011C000009F
:100110000FC000000DC000000BC0000009C00000AF
:1001200011241FBECFEFD1E4DEBFCDBF4DD052C0F2
:1001300067CFECE7F0E08081807E8083AAE7B0E0C3
:100140008C9180688C938C9187608C938081806C7B
:1001500080838081806280830895EAE7F0E0808177
:1001600080648083808186FDFDCFEAE7F0E08081B6
:10017000806180838091790090E008958DB18FEF48
:100180008DB98EB11EB8089520E030E041E050E016
:100190002817390720F4440F551F4F5F5F4F2F5D1D
:1001A0003F4F283061E0360799F74EB90895279AF6
:1001B00080E887BD84B5806884BD84B5836084BDD4
:1001C00085B5826085BD0895F2DFB3DFD7DFC5DF77
:0801D000DBDFFDCFF894FFCF47
:00000001FF
