S0100000535049476C656E6E2E7372656334
S11300008FC000009DC000009BC0000099C000008C
S113001097C0000095C0000093C0000091C000008C
S11300208FC000008DC000008BC0000089C000009C
S113003087C0000085C0000083C0000081C00000AC
S11300407FC000007DC000007BC0000079C00000BC
S113005077C0000075C0000073C0000071C00000CC
S11300606FC000006DC000006BC0000069C00000DC
S113007067C0000065C0000063C0000061C00000EC
S11300805FC000005DC000005BC0000059C00000FC
S113009057C0000055C0000053C0000051C000000C
S11300A04FC000004DC000004BC0000049C000001C
S11300B047C0000045C0000043C0000041C000002C
S11300C03FC000003DC000003BC0000039C000003C
S11300D037C0000035C0000033C0000031C000004C
S11300E02FC000002DC000002BC0000029C000005C
S11300F027C0000025C0000023C0000021C000006C
S11301001FC000001DC000001BC0000019C000007B
S113011017C0000015C0000013C0000011C000008B
S113012011241FBECFEFD1E4DEBFCDBF22E0A0E09B
S1130130B2E001C01D92A330B207E1F7B1D0EEC026
S11301405FCFE4E6F0E08081108208958CB5806191
S11301508CBD84B1876084B923988CB581658CBDCE
S113016008958EBD0DB407FEFDCF0895CF93DF93A0
S1130170D62FC42F289A2898811103C080E4F1DF78
S113018009C0813019F482E4ECDF04C0823011F438
S113019084E4E7DF8D2FE5DF8C2FE3DFDF91CF9160
S11301A00895AF92BF92CF92DF92EF92FF920F9396
S11301B01F93CF93DF93D82FC62FD22EC32EB42EE6
S11301C0A52E1092020210920102289A289882E029
S11301D0C8DFD11103C085E3C4DF09C0D13019F4ED
S11301E085E4BFDF04C0D23011F485E5BADF8C2F7B
S11301F0B8DFD0E0E0910102F0910202EC17FD07B4
S113020014F5E09200028E2DACDF2E2D3F2D402FF1
S1130210512F6D2D7C2D8B2D9A2D08E061D0E22E6F
S1130220F32E042F152FD62EC72EB82EA92EE0910B
S11302300102F09102023196F0930202E09301026E
S1130240EC17FD07F4F2DF91CF911F910F91FF900E
S1130250EF90DF90CF90BF90AF900895CF93C82FC9
S1130260686060930002289A289882E07ADFC111BE
S113027006C080E376DF8091000273DF0FC0C130D7
S113028031F480E46EDF809100026BDF07C0C2307E
S113029029F480E566DF8091000263DFCF91089541
S11302A050DF54DF40E060E080E060DF0F2EFDEDC2
S11302B0EF2EF02DF12C00E010E020E030E040E0E3
S11302C050E061E080E06DDF63E080E0C7DF289A02
S11302D0289882E046DF8FE044DF87E042DFFFCFEB
S11302E097FB10F8169400080F93083098F0085004
S11302F0232F342F452F562F672F782F892F902D9A
S1130300F4CF059497958795779567955795479575
S1130310379527950A95AAF70F910895F894FFCF7A
S9030000FC
