:100000000C94A8010C94C7010C94C7010C94C7016F
:100010000C94C7010C94C7010C94C7010C94C70140
:100020000C94C7010C94C7010C94C7010C94C70130
:100030000C94C7010C94875B0C94C7010C94C70106
:100040000C94C7010C94C7010C94C7010C94C70110
:100050000C94C7010C944B060C94C7010C94C70177
:100060000C94C7010C94C0060C94C7010C94C701F2
:100070000C94C7010C94C7010C94C7010C94C701E0
:100080000C94915B0C94C7010C94C7010C94C701AC
:100090000C94EF060C94C7010C94C7010C94C70193
:1000A0000C94C7010C94C7010C94C7010C94C701B0
:1000B0000C94C7010C94C7010C94C7010C94C701A0
:1000C0000C94C7010C94C7010C94C7010C94C70190
:1000D0000C94C7010C94C7010C94C7010C94C70180
:1000E0000C94C7010C946F0D0C94790D0C94650D54
:1000F0000C94B10D0C94A50D0C949B0D0C948F0DCC
:100100000C94830D0C94C7010C94C7010C94C70187
:100110000C94C7010C94C7010C94C7010C94C7013F
:10012000257325730A004E657665722D75736564B7
:1001300020737461636B203E2025642062797465AE
:10014000730A000A2D2D2D2D2D2D2D2D2D0A002069
:10015000203C6E6F6E653E002920256C75730A0089
:100160002F2575202876696120000A526F75746505
:1001700073205B2575206D61785D0A000A526F75EA
:10018000746573205B2575206D61785D0A00202001
:100190003C6E6F6E653E000A000A4E6569676862D4
:1001A0006F7273205B2575206D61785D0A000A000F
:1001B0000A416464726573736573205B2575206DF5
:1001C00061785D0A002578003A003A3A004F6E6C7B
:1001D000696E650A00526F7574696E6720456E61BD
:1001E000626C65640A0052504C20456E61626C6519
:1001F000640A0025732025732C206368616E6E6588
:100200006C202575202C20636865636B20726174F7
:100210006520257520487A20747820706F77657284
:100220002025750A004555492D3634204D41433A65
:100230002025782D25782D25782D25782D25782DAC
:1002400025782D25782D25780A0052616E646F6D12
:1002500020455549363420616464726573732067A4
:10026000656E6572617465640A000A2A2A2A2A2A60
:100270002A2A426F6F74696E672025732A2A2A2AF8
:100280002A2A2A0A00020000FFFE00000141544D04
:1002900045474131323872666131006C6F63616C81
:1002A000686F737400454550524F4D206973206349
:1002B0006F72727570742C20726577726974696ED2
:1002C0006720776974682064656661756C74732E45
:1002D0000A00452025642E256420636C6F636B2023
:1002E000256C752063707520256C75206C706D20F1
:1002F000256C752069727120256C7520676C6564AA
:1003000020256C7520796C656420256C7520726CD5
:10031000656420256C7520747820256C75206C69C7
:100320007374656E20256C752073656E736F7273C0
:1003300020256C752073657269616C20256C750AC7
:100340000025303278003A002578003A003A3A0029
:1003500011241FBECFEFD1E4DEBFCDBF13E0A0E07C
:10036000B2E0E2E9FDEC00E00BBF02C007900D92A5
:10037000A23FB107D9F71CE2A2EFB3E001C01D9282
:10038000AB31B107E1F70E94BB030C94C7660C9434
:100390000000CF93DF93EC0188819981892B21F4B0
:1003A00080E092E00E9496631982188283E0DF91D8
:1003B000CF910895E6E4F1E0208190813081808141
:1003C0008295869586958370207C820F969596956A
:1003D0009073890F32953C70830F08954F925F920E
:1003E0006F927F928F929F92BF92CF92DF92EF9205
:1003F000FF920F931F93CF93DF937C01BB2410E0F8
:1004000025EC422E21E0522E98EC692E91E0792EB7
:100410008AEC882E81E0982EF701D081C0E081819E
:100420006E01C80ED11CC114D10499F417FD11C07E
:10043000012F0F5F112311F0102F28C000D0EDB74E
:10044000FEB7928281820E947363102F0F900F90EB
:100450001DC0111614F41FEF0BC0BB2049F000D0D3
:10046000EDB7FEB7728261820E9473630F900F90A6
:1004700000D000D0EDB7FEB752824182D482C38251
:100480000E9473630F900F900F900F90F2E0BF0ED9
:1004900082E090E0E80EF91E90E1B91609F0BCCFB9
:1004A000DF91CF911F910F91FF90EF90DF90CF9050
:1004B000BF909F908F907F906F905F904F90089526
:1004C000BF92CF92DF92EF92FF920F931F93DF9331
:1004D000CF93CDB7DEB728970FB6F894DEBF0FBE27
:1004E000CDBF0E946E070E947A0780E06CE046E074
:1004F0000E941E0781E068E046E00E941E0780E03F
:100500000E9465070E94160684B784B784B784B733
:1005100084B7EBE1FCE222E432E4318320833A96B3
:100520008DB79EB70A97E817F907B8F300D000D047
:100530008AE692E0ADB7BEB712969C938E93119760
:1005400085E292E014969C938E9313970E947363B6
:100550000F900F900F900F900E940D120E94EA10C2
:100560008BEC92E060E070E00E94B5110E94DF0E1B
:10057000E0918203F091830309950E94DA0190E0F3
:100580000E948B07CE0101960E946E05882359F0C8
:1005900000D08AE492E0EDB7FEB7928381830E9497
:1005A00073630F900F90A6E3B4E2FE01319688E0EA
:1005B00001900D928150E1F77E010894E11CF11C3D
:1005C000C7010E94323D0E9469058C010E946405AA
:1005D000BC01C801A7010E949D070E9478050E94E6
:1005E000330A0E945F050E94300A2DB73EB72251A0
:1005F00030400FB6F8943EBF0FBE2DBFEDB7FEB72B
:10060000319685E292E0ADB7BEB712969C938E9379
:1006100011978981828313828A81848315828B81D9
:10062000868317828C81808711868D8182871386CD
:100630008E81848715868F81868717868885808B33
:10064000118A0E947363EDB7FEB772960FB6F894E5
:10065000FEBF0FBEEDBF0E949542E091D803F0911E
:10066000D9030995E091C003F091C1030995E09188
:10067000AE03F091AF030995C090BE03D090BF03C5
:10068000E090D603F090D7030E949A07B82E00910D
:10069000E4031091E503F8010995892B19F400E8AA
:1006A00010E008C0F8010995BC0180E890E00E94C4
:1006B0007E628B010E9415082DB73EB72C5030404A
:1006C0000FB6F8943EBF0FBE2DBFEDB7FEB7319603
:1006D00023EF31E0ADB7BEB712963C932E9311973E
:1006E000D382C282F582E482B682178211870087A4
:1006F000828713860E947363EDB7FEB73A960FB6F2
:10070000F894FEBF0FBEEDBF86EE91E09283818329
:100710000E94736385ED91E0ADB7BEB712969C93CE
:100720008E9311970E9473630F900F9081E193E075
:1007300060E070E00E94B5118EE793E00E94F00D3A
:1007400000D08DEC91E0EDB7FEB7928381830E94DB
:1007500073630F900F9028960FB6F894DEBF0FBE0C
:10076000CDBFCF91DF911F910F91FF90EF90DF9060
:10077000CF90BF9008952F923F924F925F926F92C9
:100780007F928F929F92AF92BF92DF92EF92FF92F1
:100790000F931F93CF93DF930E94600274E1A72E03
:1007A000B12C68E5262E61E0362E53E4452E51E04B
:1007B000552E4FE4842E41E0942E3EE8632E31E026
:1007C000732E0E9419110E948607809185209091B6
:1007D0008620009729F001979093862080938520AA
:1007E000E0908720F09088200091892010918A2045
:1007F0000E943306E616F7060807190711F30E9450
:10080000330660938720709388208093892090938B
:100810008A202CE330E040E050E00E94A5626115A0
:1008200071058105910511F40E94CB12609187201A
:10083000709188208091892090918A2028E532E06B
:1008400040E050E00E94A56262307105810591058B
:1008500009F001C100D000D0E0EBF1E0ADB7BEB7C8
:100860001296FC93EE93119724E030E014963C939B
:100870002E9313970E9473630BEA12E2C0E0D0E05C
:100880000F900F900F900F90D8018C918823D1F08A
:10089000ECE1F0E0CE9FC001CF9F900DDE9F900D68
:1008A000112484559D4D0E94EE0100D0EEEAF1E046
:1008B000ADB7BEB71296FC93EE9311970E94736387
:1008C0000F900F902196045E1F4FC430D105E1F6C2
:1008D00000D000D0E9E9F1E0ADB7BEB71296FC93C5
:1008E000EE9311971496BC92AE9213970E94736385
:1008F0000F900F900F900F908091D5029091D6029B
:100900000E94023FEC0119C0CE010E94EE0100D00E
:10091000E7E9F1E0ADB7BEB71296FC93EE931197FD
:100920000E9473630F900F908091D5029091D60230
:10093000BE010E94C83EEC01DD24209729F7DD208E
:1009400059F000D0ADB7BEB712967C926E92119757
:100950000E9473630F900F9000D000D02CE731E01D
:10096000EDB7FEB732832183B482A3820E94736302
:10097000EAE6F1E0ADB7BEB71296FC93EE9311979D
:100980001496BC92AE9213970E9473630F900F90CF
:100990000F900F900E943C1FEC01DD24D39442C0C5
:1009A000CE0104960E94EE0100D000D0EDB7FEB754
:1009B000319620E631E0ADB7BEB712963C932E9348
:1009C00011978C8D828313820E9473630F900F9016
:1009D0000F900F90CE010E9494200E94EE0100D053
:1009E00000D000D0ADB7BEB712963C922E921197B0
:1009F0008C899D89AE89BF89EDB7FEB783839483C7
:100A0000A583B6830E9473632DB73EB72A5F3F4F1D
:100A10000FB6F8943EBF0FBE2DBFCE010E94411FFE
:100A2000EC01DD24209709F0BBCFDD2059F000D088
:100A3000ADB7BEB712969C928E9211970E947363C7
:100A40000F900F9000D0EDB7FEB7528241820E9406
:100A500073630F900F908091872090918820A091D0
:100A60008920B0918A209370A070B0700397A1057F
:100A7000B10509F0A6CEEBE1FCE2808191818254C0
:100A80009244B9F000D000D026E231E0ADB7BEB755
:100A900012963C932E931197EB51FC421496FC93C3
:100AA000EE9313970E9473630F900F900F900F9027
:100AB00088CE3A9631E4E53FF307F8F282CE88E239
:100AC00090E00E94E165089586E290E00E94E96569
:100AD000089584E290E00E94E9650895F89460E04A
:100AE00070E048E050E00E94D165789480E008957D
:100AF0000F931F93DF93CF93CDB7DEB7A2970FB6B7
:100B0000F894DEBF0FBECDBF82E290E00E94E9659F
:100B100089839A83982F8B50803108F09A838A8139
:100B20008095981709F476C000D085EA92E0EDB779
:100B3000FEB7928381830E94736380E090E00F9000
:100B40000F909E012D5F3F4FFC01EB57FD4FE4914D
:100B5000D901A80FB91FEC93019688309105A1F730
:100B6000F8948E010D5F1F4FC80160E070E048E00F
:100B700050E00E94EF6520E030E0C801F901E35742
:100B8000FD4FE491DC01A20FB31FEC932F5F3F4FA9
:100B90002E30310599F768E070E04EE050E00E9499
:100BA000EF6520E030E0CE010396F901E556FD4FF8
:100BB000E491DC01A20FB31FEC932F5F3F4F2A306B
:100BC000310599F766E170E04AE050E00E94EF6578
:100BD00084E290E06DEC7BEA0E94076686E290E09A
:100BE00060E070E00E94076688E290E060E00E94AA
:100BF000F96580E290E060E070E00E9407668AE1BB
:100C0000898385EE8A8369817A8182E290E00E94FD
:100C1000076678948981A2960FB6F894DEBF0FBE5E
:100C2000CDBFCF91DF911F910F910895F89410924D
:100C3000B60016BC83EF87BD92E094BD84E085BD0D
:100C400085B385BB90936E00789408952091F2034C
:100C50003091F3038091F2039091F3032817390741
:100C6000A9F7C901089520919320309194204091D3
:100C70009520509196208091932090919420A0915E
:100C80009520B0919620281739074A075B0759F736
:100C9000B901CA0108951F920F920FB60F920BB6B9
:100CA0000F9211242F933F934F935F936F937F93F2
:100CB0008F939F93AF93BF93EF93FF938091F20332
:100CC0009091F30301969093F3038093F203809144
:100CD000F4038F5F8093F4038091F40387FF15C0C2
:100CE0001092F4038091932090919420A0919520EC
:100CF000B09196200196A11DB11D809393209093F1
:100D00009420A0939520B09396208091322288233E
:100D1000F1F08091F5038F5F8093F5038091F503E7
:100D200087FF15C01092F50380918B2090918C2045
:100D3000A0918D20B0918E200196A11DB11D8093B0
:100D40008B2090938C20A0938D20B0938E200E94B6
:100D5000000F892B11F00E94660FFF91EF91BF9158
:100D6000AF919F918F917F916F915F914F913F9143
:100D70002F910F900BBE0F900FBE0F901F901895E4
:100D80001F920F920FB60F920BB60F9211242F9352
:100D90003F934F935F936F937F938F939F93AF9303
:100DA000BF93EF93FF938091C600E0919920F0915B
:100DB0009A20309709F00995FF91EF91BF91AF917B
:100DC0009F918F917F916F915F914F913F912F9163
:100DD0000F900BBE0F900FBE0F901F9018951F9293
:100DE0000F920FB60F920BB60F9211242F933F93D1
:100DF0004F935F936F937F938F939F93AF93BF9323
:100E0000EF93FF938091CE00E0919720F09198208E
:100E1000309709F00995FF91EF91BF91AF919F91A4
:100E20008F917F916F915F914F913F912F910F9093
:100E30000BBE0F900FBE0F901F901895882371F472
:100E40001092C5006093C40088E98093C10040936C
:100E5000C20010929A20109299200895813069F46E
:100E60001092CD006093CC0088E98093C900409334
:100E7000CA0010929820109297200895882339F480
:100E80008091C00085FFFCCF6093C600089581303B
:100E900031F48091C80085FFFCCF6093CE000895A7
:100EA0001F93182F8A3031F48091F6036DE00E9471
:100EB0003E0702C08D3029F08091F603612F0E9419
:100EC0003E0780E090E01F9108958093F60389EA41
:100ED00092E09093182C8093172C089584B7877F05
:100EE00084BF88E10FB6F894809360001092600090
:100EF0000FBE08952FE088E190E00FB6F894A89512
:100F0000809360000FBE209360000895A895089517
:100F10000E94226308950E942763089581E090E073
:100F2000089581E090E0089581E090E0089581E0E7
:100F300090E008958091F7030895DA0180936201AB
:100F400090936301609360017093610141155105B5
:100F500021F1FA01819180936B0111968C9180931C
:100F60006A01DF011196818180936901FD0131964B
:100F700011968C9180936801DF0111968181809395
:100F80006701FD01319611968C91809366018181F4
:100F90008093650182818093640108958091A020EF
:100FA00090E008958091390181FF02C091E016C060
:100FB00081E491E06FE140E00E940A0D282F815109
:100FC000823058F02F3149F0213039F090E0223052
:100FD00009F491E081E0982701C090E0892F0895FD
:100FE0008091390181FD04C00E94D2078823C1F39A
:100FF00008958091390181FF03C020E030E013C0E3
:1010000081E491E06FE140E00E940A0D282F8130D9
:1010100019F421E030E007C080E090E0213111F4C4
:1010200081E090E09C01C90108958091390181FF20
:1010300002C080E1089585E491E06FE040E00E9405
:101040000A0D08958091390181FF09C0809139010D
:101050008D7F809339018DE090E00197F1F782E474
:1010600091E06FE140E023E00E94140D83E090E006
:101070000197F1F70895109232228091390181FD94
:101080008FC00E94F0078091390181FD89C00E94C4
:1010900022088091390182608093390180916A220F
:1010A0008823E9F1809194009091950020917B2212
:1010B00030917C2282179307A0F48091472290916F
:1010C0004822A0914922B0914A228C57914EAF4FAD
:1010D000BF4F8093472290934822A0934922B09318
:1010E0004A228091940090919500821B930BA0E07E
:1010F000B0E02091472230914822409149225091FE
:101100004A22820F931FA41FB51F809347229093FA
:101110004822A0934922B0934A2210926A228091D9
:101120006C228823E9F180919400909195002091A0
:101130007F223091802282179307A0F480914F2262
:1011400090915022A0915122B09152228C57914EF1
:10115000AF4FBF4F80934F2290935022A0935122C4
:10116000B09352228091940090919500821B930B32
:10117000A0E0B0E020914F223091502240915122C6
:1011800050915222820F931FA41FB51F80934F22AC
:1011900090935022A0935122B093522210926C222D
:1011A000089580913222882321F00E94D2070E9464
:1011B0003B0880E090E008950F931F93182F88302C
:1011C00059F0863049F0893039F0863129F089317B
:1011D00019F022E430E054C08091390181FF03C04E
:1011E00024E430E04DC00E94F00781E491E06FE11B
:1011F00040E00E940A0D082F181709F43CC018306F
:1012000029F4809139010E94220824C0193119F46F
:10121000863181F404C0163169F4893159F482E4CD
:1012200091E06FE140E029E00E94140D83E090E03E
:101230000197F1F782E491E06FE140E0212F0E94F5
:10124000140D083019F489E691E002C083E090E0C3
:101250000197F1F781E491E06FE140E00E940A0D0F
:10126000811749F0163019F4813041F404C0163169
:1012700029F4813119F420E430E002C023E430E0A5
:10128000C9011F910F91089580919400909195004C
:101290009093802280937F2221E020936C222093E0
:1012A00032228091390181FF22C080919400909177
:1012B000950090937C2280937B2220936A22209336
:1012C0002D229FB7789480913901809139018D7FCB
:1012D0008093390120E030E080912D22882331F085
:1012E0002F5F3F4F87E220313807B1F79FBF86E17C
:1012F0000E94DC080E94F007089580913222882322
:1013000011F40E94440981E090E008950F931F9327
:10131000DF93CF930F92CDB7DEB78091322288232F
:1013200059F08091390181FD83C00E94D207882342
:1013300009F47EC000E003C00E947D0901E08091B5
:1013400094009091950090937A228093792211E0F5
:101350001093692280E88093550186E00E94DC08A2
:101360001093A1208FB789837894109247018091C0
:10137000A1208823E1F789818FBF809147018E30BA
:1013800010F41FEF01C010E086E10E94DC0810920B
:101390005501809169228823E9F180919400909110
:1013A00095002091792230917A2282179307A0F438
:1013B0008091432290914422A0914522B0914622EF
:1013C0008C57914EAF4FBF4F80934322909344224E
:1013D000A0934522B093462280919400909195006D
:1013E000821B930BA0E0B0E0209143223091442275
:1013F0004091452250914622820F931FA41FB51F92
:101400008093432290934422A0934522B093462296
:1014100010926922002311F00E94D108212F30E0A0
:1014200086E0369527958A95E1F72170307002C0E5
:1014300020E030E0C9010F90CF91DF911F910F9113
:101440000895282F8091390181FD09C0203108F0CD
:101450002FE085E491E06FE040E00E94140D0895D4
:101460000E94210A08951F93182F0E94F0071093DD
:10147000F70388E491E06FE140E0212F0E94140D12
:101480001F9108958FEF80934E018CE691E060EFFD
:1014900044E021E00E94140D8CE691E06EE041E012
:1014A00025E00E94140D80E880936F018091460131
:1014B00080936D0184E491E060E245E021E00E94C8
:1014C000140D0895FC01AB01862F8E5F87FF0CC0C1
:1014D0008091302290913122019690933122809315
:1014E00030222FEF3FEF08C028EF33E0C901BF01E2
:1014F0000E943F6320E030E0C9010895EF92FF921F
:101500001F93DF93CF930F92CDB7DEB7182F809143
:10151000390181FF1EC080919400909195009093B5
:101520007C2280937B2281E080936A2280932D220B
:10153000809139018D7F8093390120E030E08091E6
:101540002D22882331F02F5F3F4F87E2203138076B
:10155000B1F70E94F00780913222882309F441C03C
:1015600080916C228823E9F18091940090919500FC
:1015700020917F223091802282179307A0F48091DE
:101580004F2290915022A0915122B09152228C571B
:10159000914EAF4FBF4F80934F2290935022A09314
:1015A0005122B09352228091940090919500821B19
:1015B000930BA0E0B0E020914F2230915022409157
:1015C000512250915222820F931FA41FB51F809366
:1015D0004F2290935022A0935122B0935222109206
:1015E0006C2289E10E94DC0886E00E949240892BEF
:1015F00019F4EE24FF2409C00E941508E82E86E0A5
:101600000E94924081500E94210A80919400909102
:10161000950090937E2280937D2281E080936B22BF
:101620008FB78983F8948091390182608093390162
:10163000809139018D7F809339011E5F88EF93E09F
:10164000612F0E94560D89818FBF80912E2290912B
:101650002F22019690932F2280932E220E94F00732
:1016600082E491E060EE45E00E940A0D182F86E0CA
:101670000E949240892B19F08E2D0E94210A8091A0
:101680006B228823E9F1809194009091950020913C
:101690007D2230917E2282179307A0F480914B2205
:1016A00090914C22A0914D22B0914E228C57914E98
:1016B000AF4FBF4F80934B2290934C22A0934D226B
:1016C000B0934E228091940090919500821B930BD1
:1016D000A0E0B0E020914B2230914C2240914D226D
:1016E00050914E22820F931FA41FB51F80934B224F
:1016F00090934C22A0934D22B0934E2210926B22D5
:1017000080913222882371F080919400909195000D
:101710009093802280937F2281E080936C220E94AC
:10172000440902C00E943B08113011F410E002C0CD
:10173000112321F48DE00E9492400BC0133011F46C
:1017400012E007C0153011F413E003C0173009F49C
:1017500011E0812F90E00F90CF91DF911F91FF90CA
:10176000EF900895CF93DF93EB010E94620A9C01F2
:10177000009731F4CE010E947E0A9C01009749F047
:101780008091302290913122019690933122809362
:101790003022C901DF91CF91089587EB92E00E943A
:1017A000E21181E08093A0208091A2209091A3205B
:1017B00001969093A3208093A22081E090E0089569
:1017C000CF93DF93582FA92F2091A620822F90E04E
:1017D000FC01F695FE2FEE27F795E795880F991FE8
:1017E000E80FF91FE955FF4D4081442389F047FF79
:1017F00012C0822F90E0FC01F695FE2FEE27F795A0
:10180000E795880F991FE80FF91FE955FF4D1082E2
:10181000C0E0D0E072C0433060F3C42FD0E0229724
:101820006C177D0730F3822F90E09C013695322FA4
:10183000222737952795880F991F280F391F28557C
:101840003F4D852F9A2FB90150E00E943F632091B0
:10185000A620822F90E0FC01F695FE2FEE27F7954B
:10186000E795880F991FE80FF91FE95DFE4D80810C
:1018700080939B20822F90E0FC01F695FE2FEE27AF
:10188000F795E795880F991FE80FF91FE955FF4D68
:1018900010822F5F2093A620233010F01092A620F4
:1018A0008091A62090E0FC01F695FE2FEE27F7959B
:1018B000E795880F991FE80FF91FE955FF4D8081C3
:1018C000882319F00E94CD0B02C01092A0206091D5
:1018D000470160939C2080919F20882311F0681716
:1018E00010F460939F2084E070E00E948740609134
:1018F0009B2083E070E00E948740CE01DF91CF9172
:1019000008950F931F93DF93CF930F92CDB7DEB758
:101910008C01FC0180819181009721F08D549540CC
:1019200079F506C08DE495E0F8019183808302C0CB
:10193000623811F081E028C00E94D4408FB78983BB
:10194000F8940E94454060E870E00E94E00B9C0122
:1019500089818FBF121613064CF4C9010E944040C2
:10196000E091DE03F091DF030995DCCF80919D20AB
:1019700090919E20019690939E2080939D20D2CF9F
:10198000F8011182108283E00F90CF91DF911F91B7
:101990000F9108950F931F930DEF13E0C801019766
:1019A000F1F70E94090D1092A720109229211092A0
:1019B000AB211092A6201092A520E9E3F1E08081EE
:1019C0008E7F808380818D7F808381EC9DE0019775
:1019D000F1F780818160808382E491E06FE140E0F3
:1019E00023E00E94140DC8010197F1F780915D0179
:1019F00080915E010E94420A87EB92E060E070E015
:101A00000E94B5110E94440981E090E01F910F915E
:101A100008950895FC018081862390E002C0959589
:101A200087954A95E2F70895DF93CF930F92CDB74C
:101A3000DEB75FB75983F894FC019081862F8095BB
:101A4000892330E002C0220F331F4A95E2F7622358
:101A5000862B808389818FBF0F90CF91DF9108956E
:101A6000CF93DF93FC0190917B01892F83508D37B9
:101A700030F01082E058FF4F1192108214C0EF0135
:101A80009993A0E8B1E09150292F30E02F573E4FB5
:101A90008D918993A217B307D9F7E058FF4F8C9126
:101AA000819381E08083DF91CF910895DC01609381
:101AB0008001E1E8F1E0635070E06E577E4F8D9158
:101AC0008193E617F707D9F708951F920F920FB683
:101AD0000F9211240F900FBE0F901F9018951F9218
:101AE0000F920FB60F9211240F900FBE0F901F9000
:101AF00018951F920F920FB60F9211240F900FBEE0
:101B00000F901F9018951F920F920FB60F921124ED
:101B100010922D220F900FBE0F901F9018951F92BC
:101B20000F920FB60F9211241092A4200F900FBEA7
:101B30000F901F9018951F920F920FB60F921124BD
:101B40000F900FBE0F901F9018951F920F920FB617
:101B50000F9211241092A1200F900FBE0F901F9092
:101B600018951F920F920FB60F920BB60F92112479
:101B70002F933F934F935F936F937F938F939F9395
:101B8000AF93BF93EF93FF938091470180939C2085
:101B90008091A52022E8829FC001112489559F4D84
:101BA0000E94300D8091A5208F5F8093A520833007
:101BB00010F01092A5200E94CD0BFF91EF91BF91E4
:101BC000AF919F918F917F916F915F914F913F91D5
:101BD0002F910F900BBE0F900FBE0F901F90189576
:101BE000CF93DF93EC0104C060E070E00E94B51178
:101BF000899199910097C1F7DF91CF910895EF9264
:101C0000FF920F931F93CF93DF937C018A01FC0116
:101C100080819181009729F08A34910509F04BC0A9
:101C20001AC089E794E00E944F12EC0109C06C8150
:101C30007D81CE0102960E943D100990D881C02D71
:101C40002097A9F781E080937B048AE490E0F70174
:101C50009183808302C0683811F081E030C089E749
:101C600094E00E944F12EC0123C0CE0102960817A7
:101C70001907D9F489E794E0BE010E94531200913C
:101C80008204109183048A859B85909383048093BA
:101C90008204EC85FD85309719F08E859F85099526
:101CA0001093830400938204D0CF0990D881C02D73
:101CB0002097D9F6CACFF7011182108283E0DF9115
:101CC000CF911F910F91FF90EF900895CF93DF93E5
:101CD000EC0180917B04882329F0CE0102960E94BA
:101CE0003E0F04C01F821E821986188689E794E081
:101CF000BE010E945312DF91CF9108950F931F935D
:101D0000CF93DF93EC0180918204909183049B87B1
:101D10008A875D874C873F872E8780917B04882345
:101D200099F0009182041091830481EC92E09093E9
:101D3000830480938204CE0102960E943D1010938A
:101D400083040093820402C07D836C8389E794E05E
:101D5000BE010E94531289E794E0BE010E948E12D8
:101D6000DF91CF911F910F9108950F931F93CF9300
:101D7000DF93EC0180917B04882391F00091820431
:101D80001091830481EC92E0909383048093820409
:101D9000CE0102960E9432101093830400938204B5
:101DA00089E794E0BE010E94531289E794E0BE01E6
:101DB0000E948E12DF91CF911F910F910895109282
:101DC0007B0489E794E00E944B1281EC92E060E092
:101DD00070E00E94B511089520E030E0FC0186819A
:101DE0009781892B11F421E030E0C9010895FC01AD
:101DF0002281338180819181280F391FC901089583
:101E000020917C0430917D042115310511F021E0F1
:101E100030E0C901089580917C0490917D04892B64
:101E200029F410927F0410927E0408950E942606E1
:101E3000BC01E0917C04F0917D044281538180815A
:101E40009181480F591F461B570B0CC022813381CB
:101E500080819181280F391F261B370B24173507E6
:101E600008F4A9010480F581E02D309779F7460F39
:101E7000571F50937F0440937E040895CF93DF93C0
:101E8000EC01E0917C04F0917D048E179F0741F4F2
:101E90008C819D8190937D0480937C0414C0FC010F
:101EA000309731F0848195818C179D07C1F707C069
:101EB0001D821C821F821E82DF91CF9108958C812A
:101EC0009D81958384830E940B0FF2CF8BEC92E06F
:101ED0000E94E2110895EF92FF920F931F93CF9308
:101EE000DF937C01FC0180819181009729F0893585
:101EF000910509F06DC00BC010927D0410927C0416
:101F000089E590E0F7019183808381E065C06738BF
:101F100049F59A01E0917C04F0917D0403C00480AE
:101F2000F581E02D309741F38681978182179307E1
:101F3000B1F3E0937C04F0937D040FC016968D916D
:101F40009C9117978217930711F0FD0106C0149614
:101F50008D919C91159795838483A481B581109769
:101F600069F7CECF623861F6C0917C04D0917D04D0
:101F700000E010E02AC0CE010E941A12892B01F164
:101F80008E819F8168E8AE010E948211892BA1F4A5
:101F90001F821E828C819D810115110521F0F8019F
:101FA0009583848304C090937D0480937C041D8278
:101FB0001C820E940B0FD8CF8BEC92E00E94E211A2
:101FC0008E018C819D819C01E9012097A1F698CF1B
:101FD000F7011182108283E0DF91CF911F910F9161
:101FE000FF90EF900895CF93DF93EC018BEC92E09C
:101FF0000E94E2118E819F81892BA1F0E0917C04E7
:10200000F0917D040DC0EC17FD0739F48091820436
:10201000909183049783868315C00480F581E02D19
:10202000309789F780918204909183049F838E83F7
:1020300080917C0490917D049D838C83D0937D045A
:10204000C0937C040E940B0FDF91CF9108950F93F2
:102050001F938C010E943212C8010E94F30F1F913E
:102060000F9108950F931F938C010E941012C801C5
:102070000E94F30F1F910F9108950F931F938C01EE
:102080000E943D12C8010E94F30F1F910F91089505
:1020900080918C048F5F80938C04815008951F93EE
:1020A000CF93DF93EC01162F888580FF1EC08C81B3
:1020B0009D81892BD1F0D0938304C093820482E068
:1020C0008887EC81FD81CE0106960995992787FDC9
:1020D00090950297029710F0133829F4CE01BE01B3
:1020E0000E94791002C081E08887DF91CF911F9113
:1020F0000895CF92DF92EF92FF920F931F93CF93A9
:10210000DF93EC017B01C0908204D0908304E091C6
:102110008004F091810403C00190F081E02DEC1760
:10212000FD0719F03097C1F74CC0209709F449C05A
:102130008885882339F118860091800410918104E4
:102140000BC0C017D10729F0C80167E8AE010E9493
:102150004F10F801008111810115110591F78C8153
:102160009D81892B79F0CE15DF0561F0D093830432
:10217000C0938204EC81FD81CE01069663E840E0C5
:1021800050E00995E0918004F0918104CE17DF07BB
:1021900091F48881998190938104809380040DC08B
:1021A000808191818C179D0729F488819981918381
:1021B000808303C0FC01309799F7D0928304C092CA
:1021C0008204DF91CF911F910F91FF90EF90DF90EC
:1021D000CF9008958AE880938C0410928E04109218
:1021E0008D04109281041092800410928304109246
:1021F000820408951F93CF93DF9310922F05C0910F
:102200008004D091810411E00EC08985882341F0BB
:1022100018871986CE0162E840E050E00E944F1016
:102220000990D881C02D209781F7DF91CF911F9120
:10223000089580912F05882311F00E94FA102091B3
:102240008D04222309F455C080918E0490E0FC0196
:10225000EE0FFF1FEE0FFF1FE80FF91FE157FB4FB7
:10226000608160938B044181528150938A04409332
:1022700089040380F481E02DF0938804E0938704BF
:1022800001968F71907080938E04215020938D045D
:10229000309741F5809180049091810418C080911D
:1022A0002F05882311F00E94FA1040918904509163
:1022B0008A04809185049091860460918B040E9429
:1022C0004F10E0918504F091860480819181909374
:1022D0008604809385048091850490918604892BDF
:1022E000F1F607C0613811F481E08087CF010E94C8
:1022F0004F1080912F0520918D0430E0280F311D63
:10230000C9010895DC0120918D04203219F421E0E7
:1023100030E01AC080918E04820F8F718093840404
:1023200090E0FC01EE0FFF1FEE0FFF1FE80FF91FFB
:10233000E157FB4F608352834183B483A3832F5FB4
:1023400020938D0420E030E0C90108950F931F937E
:1023500000918204109183040E944F101093830413
:10236000009382041F910F910895CF93DF93DC01B6
:10237000EB016091800440918104862F942F9C0191
:10238000F90103C00190F081E02DEA17FB07B9F0D5
:102390003097C1F76C9311964C931197B0938104C9
:1023A000A093800481E018968C93189717961C923E
:1023B0001E921697CD0161E8AE010E94A611DF9131
:1023C000CF910895FC01009741F0808581508230C3
:1023D00020F481E0818780932F050895A091300536
:1023E000B09131051097C1F010923105109230056F
:1023F00014966D917C9115971296ED91FC9113971F
:10240000CD010995E0913005F0913105309721F02B
:10241000808191810E94775B08950E945D5B0895A1
:10242000FC018081918122813381820F931F9183EE
:10243000808308950F931F938C010E94260640E02D
:1024400050E0F80120813181821B930B019622819B
:1024500033812817390710F441E050E0CA011F9179
:102460000F9108950F931F938C010E942606F80187
:10247000918380831F910F9108950F931F938C0177
:10248000FC01738362830E942606F8019183808396
:102490001F910F910895FC01118210820895FC0193
:1024A000808191810895CF93DF93EC012881398158
:1024B00021153105D1F0F901A0E0B0E014C0E61714
:1024C000F70761F480819181109719F499838883CB
:1024D00002C08D939C931182108207C0DF0180811E
:1024E00091819C01F901309751F7DF91CF910895C7
:1024F000EF92FF920F931F937C018B010E94531266
:10250000F70180819181F80191838083F701118324
:1025100000831F910F91FF90EF9008950F931F93E9
:10252000CF93DF93EC01162F072F0E945312A12F98
:10253000B02F11961C921E9288819981009739F0D4
:10254000FC01808191810097D9F7309719F41883A5
:10255000098302C0B183A083DF91CF911F910F91B6
:102560000895FC010190F081E02D20E030E005C0ED
:102570002F5F3F4F0190F081E02D3097C9F7C901DF
:102580000895FC01009719F420E030E002C020819A
:102590003181C90108950F931F931091012B009170
:1025A000022B0E9433062DB73EB7225330400FB6A0
:1025B000F8943EBF0FBE2DBFEDB7FEB7319622EDAA
:1025C00032E0ADB7BEB712963C932E9311971283AB
:1025D0001382048315826683778380879187809135
:1025E000332290913422A0913522B09136228287F5
:1025F0009387A487B5878091372290913822A09144
:102600003922B0913A2286879787A08BB18B80912F
:102610003B2290913C22A0913D22B0913E22828BA0
:10262000938BA48BB58B80913F2290914022A091F7
:102630004122B0914222868B978BA08FB18F8091DF
:10264000432290914422A0914522B0914622828F4C
:10265000938FA48FB58F8091472290914822A091AB
:102660004922B0914A22868F978FA0A3B1A380916F
:102670004B2290914C22A0914D22B0914E2282A3E8
:1026800093A3A4A3B5A380914F2290915022A0912F
:102690005122B091522286A397A3A0A7B1A78091FF
:1026A0005B2290915C22A0915D22B0915E2282A774
:1026B00093A7A4A7B5A780915F2290916022A091D3
:1026C0006122B091622286A797A7A0ABB1AB0E940E
:1026D00073632DB73EB72E5C3F4F0FB6F8943EBFE5
:1026E0000FBE2DBF1F910F9108951F93CF93DF93BE
:1026F000182FDB01FA01808192E0892718969C91BE
:102700001897981769F519969C91199781819817D0
:1027100039F51A969C911A978281981709F51B969C
:102720009C911B9783819817D9F41C969C911C97B8
:1027300084819817A9F41D969C911D9785819817FF
:1027400079F41E969C911E978681981749F41F96DE
:102750009C911F978781981719F483E090E048C0F7
:1027600018968D919C911997892B51F51A968C91F9
:102770001A97882329F51B968C911B978F3F01F59B
:102780001C968C911C978E3FD9F41D968C911D97A9
:102790008823B1F4E091D605F091D7051E968D916E
:1027A0009C911F97918380838091D6059091D70546
:1027B00002969093D7058093D60582E090E018C0EA
:1027C0008091D6059091D7059C01E901FD013896CD
:1027D00088E0019009928150E1F78091D6059091AF
:1027E000D70508969093D7058093D60581E090E0B1
:1027F00002C0880F991F1A95E2F7DF91CF911F91C0
:102800000895CF92DF92EF92FF920F931F93CF9391
:10281000DF93EC016901142F12951F70042F0F70C4
:102820001F3009F410E10F3009F400E1112329F001
:10283000CE01412F50E00E943F63E02EFF24212F64
:1028400030E0C701820F931F8031910564F4E0E10D
:10285000F0E0E81BF90B2C0F3D1FC90160E070E0B0
:10286000AF010E945A63002319F1C02EDD249E019E
:102870002E193F09205F3F4F6091D6057091D70513
:10288000C901402F50E00E943F63023031F41B30F9
:1028900020F48FEF8B878EEF8C878091D6059091F7
:1028A000D7058C0D9D1D9093D7058093D60506C046
:1028B000112321F0CE01B6010E942023DF91CF9198
:1028C0001F910F91FF90EF90DF90CF90089560914E
:1028D000442482E070E00E9487408091442481314A
:1028E00011F0863069F4209166243091672460915C
:1028F0006824709169246217730780F0B9010EC0D3
:102900008A3319F060E070E009C09091662480E09D
:1029100020916724622F70E0682B792B81E00E9460
:10292000874008955F926F927F928F929F92AF92AD
:10293000BF92CF92DF92EF92FF920F931F93DF939C
:10294000CF9300D0CDB7DEB710923905109236057F
:102950000E944540909335058093340584E00E94A1
:1029600092409093C9058093C80584EC95E00E943D
:102970001A12892B41F010923D0510923C051092DD
:10298000BF051092BE05E0913405F09135059081A8
:1029900080E02181422F50E0482B592BCA018070E2
:1029A000987F892F9927803C910521F0803E9105E1
:1029B000E9F516C0AFEFAA2EA7E0BA2EA422B522E1
:1029C000928180E02381E22EFF24E82AF92A809177
:1029D00036058C5F8093360555249924939424C042
:1029E0005480928180E02381E22EFF24E82AF92A94
:1029F000EFEFAE2EE7E0BE2EA422B5228091360581
:102A00008B5F809336050091BE051091BF050E9433
:102A1000734020913605021B1109080F191F0A1572
:102A20001B0508F088C39924882488C310923D05AB
:102A300010923C051092BF051092BE05AA24BB243B
:102A4000552420E0EE24FF249924882419C09920DD
:102A5000B1F08AE10E949B40BC0189E892E20E94A9
:102A60001E3D892B41F410923D0510923C051092B9
:102A7000BF051092BE0521E09924939401C021E086
:102A80008091BE059091BF05892BF9F0A114B10486
:102A900009F462C380913C0590913D05A816B906E2
:102AA00009F05AC38091C2059091C3058E159F0508
:102AB00009F052C38AE10E949B40BC0189E892E27E
:102AC0000E941E3D892B09F547C3C5010197803837
:102AD0009105D8F4222319F0992009F43DC3B0924E
:102AE0003D05A0923C05F092C305E092C20584EC3E
:102AF00095E060E871E00E943D128AE10E949B40EF
:102B0000BC0189E892E20E942A3D909136059530F9
:102B100009F46BC22091340530913505492F50E0FE
:102B2000F901E40FF51F6081862F807E803609F061
:102B300041C2CA010296820F931F9093D7058093DA
:102B4000D6052081018107FF05C001969093D70526
:102B50008093D605422F50E0CA018870907024FD02
:102B600041C0E091D605F091D705892B39F5AFE347
:102B7000B5E0319683E001900D928150E1F7E0914C
:102B8000D605F091D70590813496F093D705E09360
:102B9000D605292F26952695822F8F7080668093E3
:102BA0003E0520739295990F990F907C922B8091FE
:102BB0003F058F70982B90933F053FC080E6809330
:102BC0003E059081892F8695869580739F70892B0D
:102BD00080933F05818192819093410580934005C8
:102BE00033961DC0892B01F5E091D605F091D705EC
:102BF0008081869586958F70806680933E05819151
:102C0000982F9695969590738295880F880F807C63
:102C1000892B80933F051092410510924005F09357
:102C2000D705E093D60509C080E680933E05109253
:102C30003F05109241051092400574E0672E712CFB
:102C40006422752242FD0BC0E091D605F091D705B4
:102C5000819180934405F093D705E093D605FA015E
:102C6000E370F070309731F0EE54FC4F8081809328
:102C700045050BC0E091D605F091D7058191809371
:102C80004505F093D705E093D605C02EDD24C60197
:102C90008073907064E0959587956A95E1F7282F89
:102CA000237006FF36C007FD02C090E00BC0809184
:102CB0003605E0913405F0913505E80FF11D92815C
:102CC00092959F702223B1F08091CA05813039F42A
:102CD0008091CB05891719F46AEC75E002C060E0B9
:102CE00070E07093D5056093D4056115710509F006
:102CF0002DC27BC1EE24FF24E22FF0E0EE55FC4F05
:102D000010818AE10E949B409C0186E495E0B70116
:102D10000DC0E22FF0E0E256FC4F10818AE10E94E4
:102D20009B409C0186E495E06AEA73E0412F0E9493
:102D30000114202F2370C60184709070C3FE22C03E
:102D4000892B09F067C08FEF898382E08A83822F05
:102D50008150823050F4E091D605F091D7058191F1
:102D60008A83F093D705E093D605E22FF0E0EA5589
:102D7000FC4F86E595E0BE016F5F7F4F408120E00C
:102D800030E046C0892BB1F107FD02C090E00AC0D7
:102D900080913605E0913405F0913505E80FF11D7D
:102DA00092819F708091CA05813049F48091CB0552
:102DB000891729F45AECE52E55E0F52E02C0EE24D1
:102DC000FF24F092D505E092D405E114F10409F452
:102DD0000CC1E22FF0E0EE55FC4F10818BE10E9418
:102DE0009B409C0182E090E0E80EF91E86E595E0AC
:102DF000B7010DC0E22FF0E0E256FC4F10818BE1ED
:102E00000E949B409C0186E595E06AEA73E0412FB1
:102E10000E94011480913905885D809339056728E7
:102E200009F48DC0A091D605B091D7058C91887F0B
:102E3000803F09F084C0EEE3F5E081E18093440532
:102E40002C91822F90E0837F9070813F910511F14A
:102E5000823F91052CF4803F910509F0C6C008C05F
:102E6000823F910549F1833F910509F0BEC037C00B
:102E700011968D919C9112979093670580936605AA
:102E800013968D919C911497909369058093680592
:102E900015963CC0B89611968D919C91129790937F
:102EA00067058093660513968C91139790E0805088
:102EB00090419283838311C011968C91119790E079
:102EC000805090419093660581A712968D919C91B8
:102ED00013979093690580936805149617C0B89668
:102EE00011968C91119782958F7090E080559F403C
:102EF00090936605818311968C91119790E08F7065
:102F0000907080559F40928383831296B093D7052B
:102F1000A093D60522FD0EC0E091D605F091D7050D
:102F20008191919190936D0580936C05F093D705F5
:102F3000E093D60580913905885F809339058091AB
:102F4000D60590913405891B80933605A114B104F0
:102F5000B1F40E9473402091390530E0285230408E
:102F600040913605241B3109280F391F832F9927DB
:102F700087FD9A9580934205209343050EC088ED06
:102F80009FEFA80EB91EB092420588E290E0A80E0D
:102F9000B91E8A2D88528093430580914405813162
:102FA00021F5809142059091430590936B058093A4
:102FB0006A051BC0613409F0CFC0892F8F5F8093F1
:102FC0003605AEE3B5E0F901E80FF11D88E20190A6
:102FD0000D928150E1F780913605885D809336052A
:102FE00080913905885D809339050E947340209156
:102FF000360530E08217930708F4AEC00E94734094
:1030000020913605622F70E0FC01E61BF70BF09370
:103010003805E0933705452D50E093E0440F551FE8
:103020009A95E1F780913905480F511DCF01840F22
:10303000951F8138910508F08FC0425C5A4F20914E
:10304000340530913505260F371FCA01B901AF018C
:103050000E943F63A114B10421F1992061F02091F5
:1030600039058091BE059091BF05820F911D909307
:10307000BF058093BE05882029F0B092BF05A092BD
:10308000BE051BC08091BE059091BF0520913705FC
:1030900030913805820F931F9093BF058093BE0532
:1030A0000CC0209139058091370590913805820F29
:1030B000911D90933D0580933C052091BE05309174
:1030C000BF052115310541F080913C0590913D05EA
:1030D0002817390709F040C02EE334E2EEE3F5E0AB
:1030E00040913C0550913D05C901BF010E943F63DD
:1030F00080913C0590913D0590932F2480932E2440
:1031000010923D0510923C051092BF051092BE052D
:103110008091320590913305892B51F00E946714FC
:10312000E0913205F09133050280F381E02D09959D
:103130000E94C63711C09924882483948091BE05CB
:103140009091BF05892B09F082CC99CC82E0E82EC2
:10315000F12CE60EF71ED0CD0F900F90CF91DF919E
:103160001F910F91FF90EF90DF90CF90BF90AF90A5
:103170009F908F907F906F905F90089581EF98E17E
:103180000E94733781E08093CA051092CB058AEACA
:103190008093CC058093CD050895BC018091CA052C
:1031A000813059F48CEC95E048E050E00E943263A5
:1031B000009719F42AEC35E002C020E030E0C901A4
:1031C0000895BC018BE10E94A640E091EA03F091D2
:1031D000EB038BEB9DE160E070E009950E948607B0
:1031E0000895AF92BF92CF92DF92EF92FF920F932A
:1031F0001F93DF93CF93CDB7DEB728970FB6F89420
:10320000DEBF0FBECDBF8C0110923905109236057E
:103210000E94D4400E944540909335058093340528
:1032200089E064E070E00E948740809132059091CF
:103230003305892B11F00E94671480914424863055
:1032400091F48091732490E080FD08C08F7390709A
:10325000409749F08FE062E070E003C08FE063E0E8
:1032600070E00E948740CE0101960115110519F406
:103270006CEC73E001C0B8010E942A3DE091340576
:10328000F09135058F010E5F1F4F1093D705009306
:10329000D60580913605E80FF11D128286E594E28D
:1032A0000E94CD18892B41F486E494E20E94CD1847
:1032B000892B11F410E007C00F5F1F4F1093D70543
:1032C0000093D60510E880913E24482F50E070917D
:1032D0003F249A0164E0220F331F6A95E1F7872F9C
:1032E00082958F70822B682F669566958295880FE0
:1032F000880F807C682B272F30E0C9018F70907079
:10330000892BD1F48091402490914124892BA1F400
:103310004F705070452B29F4872F807F11F408E7F8
:1033200046C0E091D605F091D7056193F093D7059B
:10333000E093D60500E73BC04F705070452BE1F499
:10334000822F807FC9F4E091D605F091D705607C8B
:103350007F70672B608380914024909141249283F9
:1033600081838091D6059091D70503969093D705D8
:103370008093D60508E61BC0E091D605F091D705ED
:1033800080913E2490913F24A0914024B09141240B
:1033900080839183A283B383E091D605F091D70512
:1033A00060833496F093D705E093D60500E68091CC
:1033B0004424813109F4046002FD09C0E091D6057E
:1033C000F091D7058193F093D705E093D6058091CE
:1033D0004524803431F08F3F31F0813031F4016089
:1033E0000DC002600BC0036009C0E091D605F091EA
:1033F000D7058193F093D705E093D60580914624B5
:1034000090914724892B61F580914824909149241B
:10341000892B31F580914A2490914B24892B01F519
:1034200080914C2490914D24892BD1F480914E248D
:1034300090914F24892BA1F4809150249091512494
:10344000892B71F48091522490915324892B41F45B
:103450008091542490915524892B11F410645EC0FE
:1034600086E494E20E94CD18DC019093D505809308
:10347000D4050097D1F08091360590E00296E09156
:103480003405F0913505E80FF91F11968C9182955E
:10349000807F9081892B808384E066E474E246E338
:1034A00054E20E947513106C21C0809146248E3F17
:1034B000F9F4809147248038D9F480915824909170
:1034C0005924892BA9F480915A2490915B24892B4B
:1034D00079F480915C2490915D24892B49F484E0F7
:1034E00066E474E246E354E20E947513182B16C09A
:1034F0008091D6059091D7059C01D901E6E4F4E2CC
:1035000080E101900D928150E1F78091D605909174
:10351000D70540969093D7058093D6058091562481
:103520008F3F09F0A1C01860809157248230A9F51F
:103530008091582490915924892B79F580915A24AF
:1035400090915B24892B49F580915C2490915D24B6
:10355000892B19F580915E2490915F24892BE9F4E1
:103560008091602490916124892BB9F48091622428
:1035700090916324892B89F480916424882369F4D1
:10358000136080916524E091D605F091D705819371
:10359000F093D705E093D605C5C08091582490914B
:1035A0005924892B09F052C080915A2490915B24B0
:1035B000892B09F04BC080915C2490915D24892B6C
:1035C00009F044C080915E2490915F24892BF9F426
:1035D0008091602490916124892BC9F480916224A8
:1035E0008823A9F4126080915724E091D605F091C8
:1035F000D7058193A3E6B4E283E00D900192815058
:10360000E1F78091D6059091D705049687C0809107
:103610005E2490915F24892BC9F4809160248823D3
:10362000A9F4116080915724E091D605F091D70557
:103630008193A1E6B4E285E00D9001928150E1F71B
:103640008091D6059091D705069668C08091D605E1
:103650009091D7059C01D901E6E5F4E280E1019063
:103660000D928150E1F755C086E594E20E94CD1895
:10367000DC019093D5058093D4050097C9F0809123
:10368000360590E00296E0913405F0913505E80F9B
:10369000F91F808111969C91892B808380E066E5DB
:1036A00074E2AE014F5F5F4F0E947513146022C039
:1036B000809156248E3F01F5809157248038E1F4A3
:1036C0008091582490915924892BB1F480915A24E7
:1036D00090915B24892B81F480915C2490915D24EE
:1036E000892B51F480E066E574E2AE014F5F5F4FD5
:1036F0000E947513182B16C08091D6059091D7059E
:103700009C01D901E6E5F4E280E101900D9281503F
:10371000E1F78091D6059091D70540969093D70513
:103720008093D60588E280933905809144248131C5
:1037300009F08BC03091662420916724C901807FF5
:10374000805B904FC9F49091682480916924807FB8
:10375000805B904F89F4E091D605F091D70583EF17
:10376000808390916924905B809167248295807F0B
:10377000980F918332961CC090916824809169249F
:1037800080708050904FC9F4E091D605F091D70534
:1037900081EF808380916624909167249283818356
:1037A000E091D605F091D705809169248383349602
:1037B000F093D705E093D60530C02070E091D60590
:1037C000F091D7052050304F89F482EF80838091AB
:1037D00067248183809168249091692493838283F4
:1037E0008091D6059091D705049613C080EF808311
:1037F0008091662490916724A0916824B0916924F7
:1038000081839283A383B4838091D6059091D70559
:1038100005969093D7058093D605E091D605F09153
:10382000D70580916C2490916D2491838083809141
:10383000D6059091D70502969093D7058093D6052B
:1038400080913905885F8093390580913605E09134
:103850003405F0913505E80FF11D008380913605A0
:10386000E0913405F0913505E80FF11D1183809149
:10387000D60590913405891B809336058BE1BE01F6
:103880006F5F7F4F0E94A640E091B603F091B703AF
:1038900009958C0197FF02C005E110E0E091F0036B
:1038A000F091F10309959DE7C92ED12CC01AD10AD8
:1038B000C81AD10800912E2410912F248091390527
:1038C00090913605482F50E0F801E41BF50B692F65
:1038D00070E0C601861B970B8E179F070CF018C16E
:1038E0000E9487429C01C80168E770E00E949262D2
:1038F0006F5F7F4F621773070CF02BC16091340527
:103900007091350540913605CB01049650E00E9438
:103910004863E0913405F091350580912E24909113
:103920002F24906C9083E0913405F09135058091BF
:103930002E248183E0913405F09135058091C105F5
:103940008283E0913405F09135058091C005838331
:103950008091C0059091C10501969093C105809317
:10396000C005809136058C5F8093360590E0F601A6
:10397000E81BF90BE87FF0933805E0933705409199
:10398000340550913505480F591F2091390530E015
:10399000225C3B4DCA01B901AF010E943F632091F7
:1039A00036058091370590913805820F911D0E9450
:1039B00040400E9438428C01009709F4CAC05E0161
:1039C0000894A11CB11CC5010E94E118C8010E9405
:1039D000D641C8010E94164280913A0590913B055C
:1039E0008130910509F4B5C08430910509F4B1C066
:1039F000059709F4AEC080913905E0903705F09045
:103A00003805E80EF11C85E080933605E091340519
:103A1000F091350580912E2490912F24906E908303
:103A2000E0913405F091350580912E2481838091B9
:103A30003605C81AD10888EF9FEFC822D922D09244
:103A40003805C092370565015AC0E0913405F09100
:103A50003505C70113E0969587951A95E1F784839C
:103A600020912E2430912F242E193F098091370563
:103A7000909138052817390720F4309338052093A2
:103A80003705809136052091340530913505280F92
:103A9000311DF701E25CFB4D40913705509138052F
:103AA000C901BF010E943F6320913605809137050F
:103AB00090913805820F911D0E9440400E9438422B
:103AC0008C01009709F445C0C6010E94E118C801A5
:103AD0000E94D641C8010E941642209137053091BC
:103AE000380580913A0590913B058130910589F127
:103AF0008430910571F1059761F1E20EF31E80911A
:103B00002E2490912F24E816F90608F49ECF1FC0AA
:103B10002091340530913505260F371F425C5B4DEF
:103B2000C901BA01AF010E943F632091360580911F
:103B30002E2490912F24820F911D20913905821BF4
:103B400091090E944040CE0101960E94E11881E057
:103B500001C080E028960FB6F894DEBF0FBECDBF3F
:103B6000CF91DF911F910F91FF90EF90DF90CF9059
:103B7000BF90AF900895CF93DF93EB01CB01BA01D3
:103B80000E94D41DE0913205F0913305309729F061
:103B90000480F581E02DCE010995D0933B05C093BB
:103BA0003A05DF91CF910895EF92FF920F931F9303
:103BB000CF93DF938C017B018BE10E949B40EC0152
:103BC0006CEC73E00E941E3D892B29F4CE01B801F4
:103BD000A7010E94A358DF91CF911F910F91FF90F1
:103BE000EF900895BC018091D5029091D6020E9479
:103BF000963E08950F931F93CF93DF938C0180918E
:103C0000D5029091D6020E94023F0115110519F4C8
:103C1000C0E0D0E014C0EC0110C0CE01B80140E11A
:103C200050E00E943263009751F08091D50290914C
:103C3000D602BE010E94C83EEC01209771F7CE016A
:103C4000DF91CF911F910F910895BC018091D50212
:103C50009091D6020E944C3E08950E94FA1DBC012C
:103C6000009719F420E030E007C08091D5029091D0
:103C7000D6020E944C3E9C01C9010895CF93DF9368
:103C8000EC01009769F083960E94F53ACE010E94FC
:103C900078588091D5029091D602BE010E94153EBF
:103CA000DF91CF910895EF92FF920F931F93CF93DF
:103CB000DF938091D5029091D6020E94023FEC01E1
:103CC00092E0E92E84E0F82E85C08AA1813041F08F
:103CD000813078F0833049F1843009F073C035C009
:103CE000CE0140960E94455C892B09F46BC0EAA284
:103CF00069C088A18330C0F58E01085E1F4FC801DE
:103D00000E94455C892B09F45DC080912E2490911E
:103D10002F24892B09F056C088A18F5F88A380E0EB
:103D200090E060E070E0AE0138C0CE0140960E94A5
:103D3000455C892B09F446C0FAA218A2CE01489628
:103D400040E050E060E070E03BC088A1833080F04C
:103D5000CE010E946F1FFC01009731F0828D8823F5
:103D600019F4CF010E94C01FCE010E943E1E2AC03E
:103D70008E01085E1F4FC8010E94455C892B11F11E
:103D800080912E2490912F24892BE1F488A18F5FBC
:103D900088A380E090E0BE01AE010E94E02A60911D
:103DA000A6227091A7228091A8229091A92228EEA4
:103DB00033E040E050E00E94A562C801BA01A901C9
:103DC0000E946E5C8091D5029091D602BE010E9445
:103DD000C83EEC01209709F078CFDF91CF911F9179
:103DE0000F91FF90EF900895EF92FF920F931F9322
:103DF000CF93DF93182F092FF42EE22E8091D50256
:103E00009091D6020E94283FEC01009721F1DC013D
:103E1000812F902F9C01F90180E101900D9281503A
:103E2000E1F7F9A2EAA2CE0183960E94CA3ACE0136
:103E3000409640E050E060E070E00E946E5CCE0191
:103E4000489640E050E060E070E00E946E5C18A28E
:103E5000CE010E947858CE01DF91CF911F910F9132
:103E6000FF90EF9008958091D5029091D6026EE375
:103E70007EE10E94F13D089582EC98E00E944F128D
:103E80000895009719F420E030E003C00E94C112A9
:103E90009C01C90108950F931F93CF93DF938CEB7F
:103EA00098E00E944F12EC0100E010E010C08E017B
:103EB0000E5F1F4FC8010E94FA1DFC01009719F008
:103EC00082A1882331F4CE010E94C112EC01209717
:103ED00071F7C801DF91CF911F910F9108950F9352
:103EE0001F93CF93DF938C018CEB98E00E944F12CD
:103EF0000CC0CE010296B80140E150E00E9432634E
:103F0000009731F0CE010E94C112EC01009789F7B1
:103F1000CE01DF91CF911F910F910895CF92DF9243
:103F2000EF92FF920F931F93CF93DF938C016B015E
:103F30007A0180EC98E00E944F1216C00230110501
:103F400030F48CEB98E00E94B1129C0104C02091E7
:103F5000BE083091BF08EA81FB81C801B601A70104
:103F60000995CE010E94C112EC01009739F7DF914B
:103F7000CF911F910F91FF90EF90DF90CF90089518
:103F80000F931F93CF93DF938C018CEB98E00E94EB
:103F90004F1219C0C017D10799F48CEB98E0BE01FD
:103FA0000E9453128FED92E0BE010E94AE5CAE0102
:103FB0004E5F5F4F81E090E0BA010E948E1F06C005
:103FC000CE010E94C112EC01009721F7DF91CF9141
:103FD0001F910F910895CF93DF930CC08A8D882392
:103FE00071F4CE0142960E94455C892B41F0CE01CE
:103FF0000E94C01F8CEB98E00E944F1203C0CE01BC
:104000000E94C112EC01009749F7DF91CF9108950A
:10401000CF92DF92EF92FF920F931F93CF93DF9394
:10402000D82EC92E7A018B010E946F1FEC010097D8
:1040300061F48FED92E00E94805CEC01009739F111
:104040008CEB98E0BE010E947812DE0112968D2D55
:104050009C2D9C01F90180E101900D928150E1F7C6
:10406000E114F1040105110541F0CE014296B801B9
:10407000A7010E946E5C1A8E02C081E08A8F80E0E8
:1040800090E06D2D7C2D4D2D5C2D0E948E1FCE015C
:10409000DF91CF911F910F91FF90EF90DF90CF9024
:1040A0000895CF92DF92EF92FF920F931F93CF93D9
:1040B000DF936C0182EC98E00E944F12EC0100E06B
:1040C00010E0EE2418C0FC8CFE1478F0BE016C5F8A
:1040D0007F4F4F2D469546954695C60150E00E946C
:1040E0003263009711F48E0101C0FE2CCE010E94B4
:1040F000411FEC01EF2C209731F70115110551F00C
:1041000082EC98E0B8010E94531282EC98E0B8016A
:104110000E948E12C801DF91CF911F910F91FF90E5
:10412000EF90DF90CF900895FC01009719F420E004
:1041300030E009C06281738187EE92E00E944C3EBC
:104140000E94F21D9C01C90108950F931F93CF9304
:10415000DF93EC01009709F456C08A819B81892B7B
:1041600009F451C082EC98E0BE010E945312EA812A
:10417000FB81828193810E944F1203C0C8010E947B
:10418000C1128C01009739F0FC01828193818C1758
:104190009D07A1F704C0CE0104960E94413AEA812E
:1041A000FB8182819381B8010E945312EA81FB81D5
:1041B000828193810E944F12892B41F4EA81FB8115
:1041C0006281738187EE92E00E94153E8FEE92E04D
:1041D000BE010E94AE5C87EF92E0B8010E94AE5C27
:1041E0008091BE089091BF0801979093BF0880937B
:1041F000BE08CE010E949420AC01249683E090E09A
:10420000BE010E948E1FDF91CF911F910F910895E3
:10421000CF93DF93EC010097A9F08A819B810097EF
:1042200039F410C0828193810E94A5208A819B81EC
:104230000E944F12FC010097A9F787EE92E0BE01A1
:104240000E94153EDF91CF9108950E9408210895A4
:104250009F92AF92BF92CF92DF92EF92FF920F9315
:104260001F93CF93DF93D82EC92E962E5A01CA01E1
:104270000E942D1EEC01009709F478C08D2D9C2D15
:104280000E945120009711F00E94A5208091BE0845
:104290009091BF08449731F482EC98E00E944F124D
:1042A0000E94A52087EE92E0BE010E94963E8C01FE
:1042B000009781F487EE92E0BE010E94283FFC0146
:1042C0008C01009709F452C093838283118210827B
:1042D0000E944B128FEE92E00E94805CEC017C0108
:1042E000009709F445C082EC98E0BE010E948E124E
:1042F00087EF92E00E94805CFC01009731F48FEE22
:1043000092E0BE010E94AE5C31C0D383C283D8016B
:1043100012968D919C911397BF010E948E121B8360
:104320000A838091BE089091BF0801969093BF08C0
:104330008093BE08DE0114962D2D3C2DC901FC0191
:1043400080E101900D928150E1F79C8ECE01449660
:10435000FC0188E0DF011D928A95E9F782E090E098
:104360006D2D7C2DA5010E948E1F02C0EE24FF241E
:10437000C701DF91CF911F910F91FF90EF90DF90D8
:10438000CF90BF90AF909F9008958FEE92E00E94E3
:104390001B5D82EC98E00E944B1287EE92E065E292
:1043A00071E20E94F13D8FED92E00E941B5D8CEB6B
:1043B00098E00E944B1280EC98E00E944B12089506
:1043C000482F8BEA92E290931C0C80931B0C242FB5
:1043D000332727FD309515C08081882369F04F3F32
:1043E00029F0818990E08217930731F481818E3F13
:1043F00019F48281803879F07C96F0931C0CE0935C
:104400001B0CE0911B0CF0911C0C83E2EB31F807C4
:1044100018F3E0E0F0E0CF01089540E020E030E064
:10442000FC01E20FF31F5081FB01E20FF31FE0815B
:104430005E1731F4485F2F5F3F4F403889F70AC05D
:10444000E527842F885FE7FD05C04F5F481711F00F
:10445000EE0FF9CF842F0895DF92EF92FF920F9322
:104460001F93CF93DF93EC017B01FB0180818E3F93
:1044700021F48181803819F436C08F3FA1F18BEA95
:1044800092E290931C0C80931B0CDD2400E010E062
:1044900021C080818823A9F08189813091F48181B4
:1044A0008E3F19F48281803861F03196C701BF01D7
:1044B0000E940D228D1528F000911B0C10911C0CF0
:1044C000D82E80911B0C90911C0C4C9690931C0C38
:1044D00080931B0CE0911B0CF0911C0C83E2EB31E0
:1044E000F807B8F204C081E00E94E0218C010115B8
:1044F000110589F4198218821B821A821D821C827E
:104500001F821E82198618861B861A861D861C86A7
:104510001F861E8608C0DE01F801319680E10190F9
:104520000D928150E1F7DF91CF911F910F91FF9094
:10453000EF90DF900895DF92EF92FF920F931F9319
:104540000E948807D82E0E948807E0909E22F09053
:104550009F220091A0221091A1223D2D20E0280F42
:10456000391F40E050E0CA01B901A80197010E943B
:10457000A5629B01AC0116950795F794E7942E0D63
:104580003F1D401F511FB901CA011F910F91FF909C
:10459000EF90DF9008958091080C882321F080E04F
:1045A00090E00E94C92B0E94880760E971E00E9498
:1045B0007E6288539F4F90930A0C8093090C209140
:1045C000080C233058F4419730F080E190E090934C
:1045D0000A0C8093090C2F5F2093080C4091090C62
:1045E00050910A0C60E070E081E992E20E946E5CFA
:1045F000089510920A0C1092090C81E992E20E942F
:104600001F5C2091090C30910A0C40E050E0261705
:1046100037074807590798F481E992E20E940A5C3B
:10462000633071058105910550F04091090C50915E
:104630000A0C60E070E081E992E20E946E5C0895ED
:10464000CF93DF93DC01EC012896FB0188E0019019
:1046500009928150E1F718968C91189792E089277A
:1046600018968C93DF91CF9108950F931F93CF935A
:10467000DF938C0186EB93E29093200C80931F0CC8
:1046800016C08881882371F04989469546954695DC
:10469000CE010196B80150E00E943263009711F4F8
:1046A00081E00EC06C96D093200CC0931F0CC0917B
:1046B0001F0CD091200C84E2C632D80710F380E0A2
:1046C000DF91CF911F910F9108958F929F92AF929A
:1046D000BF92DF92EF92FF920F931F93CF93DF93DE
:1046E0005A014901D02EF7011182108270E0469FD5
:1046F0008001479F100D569F100D1124080F191FA0
:10470000D694D694D694EC0116C08881882371F093
:10471000CE010196B4014D2D50E00E943263009706
:1047200041F4F701D183C08380E010C0F701D18349
:10473000C083CA0DDB1DC017D10738F3F701808194
:104740009181892B11F482E001C081E0DF91CF914A
:104750001F910F91FF90EF90DF90BF90AF909F90CF
:104760008F900895EF92FF920F939C018EE493E255
:1047700066E041E150E000E8FDE1EF2EFCE0FF2EB5
:104780000E946523882319F020E030E004C02091C6
:104790001D0C30911E0CC9010F91FF90EF900895F0
:1047A000CF93DF93EC01009799F19FEF90930B0C5F
:1047B00082E080930C0C10920E0C10920D0C109253
:1047C000100C10920F0C1092120C1092110C1092EF
:1047D000140C1092130C1092150C81E08093160C9F
:1047E0009093170C8E858093180C8F8598899093E1
:1047F0001A0C8093190C8BE09CE00E94B223FC0100
:1048000090931E0C80931D0C009709F01082188263
:10481000DF91CF910895DF92EF92FF920F931F9354
:10482000182FD92E8EE493E266E041E150E0212F6B
:104830003D2D00E8ADE1EA2EACE0FA2E0E946523A2
:10484000813019F020E030E017C0E0911D0CF091AC
:104850001E0C8083E0911D0CF0911E0C3196212FCF
:104860003D2DC901DC0180E10D9001928150E1F7FD
:1048700020911D0C30911E0CC9011F910F91FF90CA
:10488000EF90DF900895EF92FF920F939C018BEAD7
:1048900092E264E04CE150E000E8BBE1EB2EBCE0CA
:1048A000FB2E0E946523882319F020E030E004C02D
:1048B00020911B0C30911C0CC9010F91FF90EF90BF
:1048C0000895AF92BF92CF92DF92EF92FF920F9333
:1048D0001F93CF93DF93EC015A016B01122F8BEAE8
:1048E00092E264E04CE150E09E0100E87BE1E72EBB
:1048F0007CE0F72E0E946523813019F020E030E043
:104900005EC0E0911B0CF0911C0C8083E0911B0CAD
:10491000F0911C0C3196DE0180E10D9001928150E6
:10492000E1F7E0911B0CF0911C0C128BE0911B0C39
:10493000F0911C0CA114B104C104D10419F481E05C
:10494000838B0AC0138A80911B0C90911C0C449697
:10495000B601A5010E946E5CE0911B0CF0911C0C4D
:1049600021E0218B9FEF90930B0C82E080930C0C45
:1049700010920E0C10920D0C1092100C10920F0C45
:104980001092120C1092110C1092140C1092130C25
:104990001092150C2093160C9093170C8D85809314
:1049A000180C8E859F8590931A0C8093190C8BE0C0
:1049B0009CE00E940B2420911B0C30911C0CC9011F
:1049C000DF91CF911F910F91FF90EF90DF90CF90EB
:1049D000BF90AF9008952F923F924F925F926F9247
:1049E0007F928F929F92AF92BF92CF92DF92EF927F
:1049F000FF920F931F93DF93CF930F92CDB7DEB744
:104A0000582E492E362E242E29833701480186EB55
:104A100093E264E04CE150E0252D342D032DFFE1BD
:104A2000EF2EFCE0FF2E0E946523813019F020E07C
:104A300030E037C0E0911F0CF091200C8083E091B2
:104A40001F0CF091200C3196252D342DC901DC016D
:104A500080E10D9001928150E1F7E0911F0CF091FF
:104A6000200C318AE0911F0CF091200C228AE091F9
:104A70001F0CF091200C8981838FE0911F0CF09125
:104A8000200C638A748A858A968AE0911F0CF091C3
:104A9000200CA78AB08EC18ED28E20911F0C30912F
:104AA000200CC9010F90CF91DF911F910F91FF90C2
:104AB000EF90DF90CF90BF90AF909F908F907F90BE
:104AC0006F905F904F903F902F9008958BEA92E205
:104AD00017C08081882379F08389882361F4CF010E
:104AE00044960E94455C892B31F080911B0C90917B
:104AF0001C0C0E94D02380911B0C90911C0C4C9696
:104B000090931C0C80931B0CE0911B0CF0911C0CDF
:104B100083E2EB31F807E8F20E94EB1F0E94531E7C
:104B200081E992E20E94455C892B41F080912E241C
:104B300090912F24892B11F40E94CB2286E294E2DB
:104B40000E9432100895AF92BF92CF92DF92EF92FF
:104B5000FF920F931F930E94331F0E94C52180E78D
:104B6000E6EBF3E2DF011D928A95E9F78BE191E034
:104B7000E9E9F2E2DF019C011D9221503040E1F7AA
:104B80008CE18093B52382E18093B42380E095E0AB
:104B9000A0E0B0E08093992290939A22A0939B2268
:104BA000B0939C2280E480939D2280E395E7A0E06F
:104BB000B0E080939E2290939F22A093A022B09376
:104BC000A1220E949B226093A2227093A322809331
:104BD000A4229093A52288EE93E0A0E0B0E0809319
:104BE000A6229093A722A093A822B093A922109264
:104BF000AA228EEF90E890930C0C80930B0C1092ED
:104C00000E0C10920D0C1092100C10920F0C1092B2
:104C1000120C1092110C8BE09CE060E440E020E06C
:104C2000EE24FF248701AA24BB2465010E94EB2403
:104C3000A3E1BCE0E6E3F4E288E001900D9281504C
:104C4000E1F78091130C92E089278093130C8BE09D
:104C50009CE040E050E060E070E021E00E946124D0
:104C60000FEF12E010930C0C00930B0C10920E0C33
:104C700010920D0C1092100C10920F0C1092120C3E
:104C80001092110C1092140C1092130C1092160C1E
:104C90001092150C1092180C1092170C80E091E0F5
:104CA00090931A0C8093190C8BE09CE00E940B24CB
:104CB00010930C0C00930B0C10920E0C10920D0C18
:104CC0001092100C10920F0C1092120C1092110CEA
:104CD0001092140C1092130C1092160C1092150CCA
:104CE0001092180C1092170C80E092E090931A0C1E
:104CF0008093190C8BE09CE00E940B2481E992E2E6
:104D000042E050E060E070E00E946E5C86E294E277
:104D10006CE070E00E943D101F910F91FF90EF90AA
:104D2000DF90CF90BF90AF9008958FEF92E00E94F8
:104D3000D25E85E093E00E94D25E8BE093E00E9419
:104D4000D25E08950F931F93DF93CF93CDB7DEB755
:104D5000A5970FB6F894DEBF0FBECDBF8091452456
:104D60008F3F09F0E0C080912B0C682F70E0FB01B1
:104D7000EA59FB4D8181882309F0D5C084E08093F6
:104D8000210C1092230C1092220C00912E241091D1
:104D90002F2420E030E044E0FB01BC9617C0DC018A
:104DA000A25CBB4D11969C911197992339F43093D5
:104DB000230C2093220C4093210CB5C08C918130A0
:104DC00009F49D01990F990F990F490FCF01840F95
:104DD000911D8017910718F32093220C3093230C18
:104DE0004093210C232B09F49CC080914624909180
:104DF0004724892B59F58091482490914924892B87
:104E000029F580914A2490914B24892BF9F48091C3
:104E10004C2490914D24892BC9F480914E2490917B
:104E20004F24892B99F48091502490915124892BFF
:104E300069F48091522490915324892B39F4809104
:104E4000542490915524892B09F46DC086E494E292
:104E50000E94FA1D9093250C8093240C6091220CE3
:104E60007091230C009749F46E5F7F4F86E494E2C3
:104E700040E022E00E94F41E54C08B010E5F1F4FE1
:104E80000E94251EBC01C80148E050E00E94326328
:104E9000009709F441C04091240C5091250CDE018B
:104EA0001196CA01FC0185E201900D928150E1F753
:104EB00019A1CA010E943E1E6091220C7091230C20
:104EC0006E5F7F4F86E494E240E022E00E94F41E91
:104ED000FC019093250C8093240C9C01205F3F4F94
:104EE000AE014F5E5F4F88E0DA010D90AD01D90150
:104EF0000D929D018150C1F79F01285E3F4FAE0189
:104F0000475E5F4F88E0DA010D90AD01D9010D9247
:104F10009D018150C1F710A3E091240CF091250C64
:104F200011A20E94F92210922F2410922E24A596ED
:104F30000FB6F894DEBF0FBECDBFCF91DF911F91AA
:104F40000F910895BF92CF92DF92EF92FF920F934D
:104F50001F93CF93DF9390912B0CE92FF0E0DF01AB
:104F6000A659BB4DDC90809145248F3F09F03EC18E
:104F7000EA59FB4D8181882309F038C114968C9140
:104F800014978F3F09F432C120E4B22EBD20D6FE23
:104F900005C0809156248F3F09F428C184E1809395
:104FA000210C1092230C1092220CC0912E24D0912F
:104FB0002F2440E050E064E1292F30E0245D3F4F92
:104FC0000FC0FC01E25CFB4D9181992309F408C1FB
:104FD0008081823009F4AF01990F990F990F690F01
:104FE000C901860F911D8C179D0758F35093230C10
:104FF0004093220C6093210CCD0104960E9443241F
:105000009093290C8093280C892B09F0EFC0809194
:105010002B0C90E082599B4D0E94FA1D9093250C19
:105020008093240C0E94251EF82EE92E0091240C5A
:105030001091250C0115110509F4D8C0C091220C5E
:10504000D091230C209711F440E009C0CE010296C4
:105050006F2D7E2D48E050E00E943263482F80E89B
:10506000C82ECD20F80182A1882379F5209709F474
:10507000BDC08F2D9E2D9C01D901FE01329688E086
:1050800001900D928150E1F7C091240CD091250C34
:10509000BB20C1F081E08AA318A26091A222709186
:1050A000A3228091A4229091A52228EE33E040E033
:1050B00050E00E94A562CE014096BA01A9010E946B
:1050C0006E5C5CC082E08AA359C0D5FC09C0442351
:1050D00039F0813009F08AC082E0F80182A386C0ED
:1050E000209759F08F2D9E2D9C01D901FE013296FB
:1050F00088E001900D928150E1F7BB20E1F0009132
:10510000240C1091250C81E0F80182A36091A22269
:105110007091A3228091A4229091A52228EE33E0E1
:1051200040E050E00E94A562C8014096BA01A90182
:105130000E946E5C0EC08091220C9091230C892BF2
:1051400041F0442331F0E091240CF091250C82E0F1
:1051500082A3E091240CF091250C81A1882371F0A9
:10516000CC2061F486E494E20E946F1F9093270C98
:105170008093260C009711F00E94C01FE091240C30
:10518000F091250CC1A28091240C9091250C83965E
:105190000E94DA3A892B51F18091240C9091250CD0
:1051A00083960E94DA3A90932F2480932E24809144
:1051B000240C9091250C83960E94CE3ABC012EE3DC
:1051C00034E240912E2450912F24C9010E943F6364
:1051D0008091240C9091250C83960E94F53A0AC088
:1051E0005093230C4093220C6093210C10922F2497
:1051F00010922E24DF91CF911F910F91FF90EF908D
:10520000DF90CF90BF900895CF93DF93FC01608330
:1052100082E08183EF012296A6E3B4E288E00D905C
:1052200009928150E1F7CF010A96FC0186E0DF0187
:105230001D928A95E9F7DF91CF910895FF920F9320
:105240001F93CF93DF93809145248F3F09F0AEC128
:1052500080912B0CE82FF0E0E25CFB4D80A98F3FA2
:1052600009F4A4C181A5882309F0A0C11092230CE0
:105270001092220C84E18093210C32E0F32E90C036
:10528000F901E25CFB4D8181882309F48FC18081A3
:10529000813009F075C0F093230CE093220C8091CB
:1052A000462490914724892B59F580914824909168
:1052B0004924892B29F580914A2490914B24892BEC
:1052C000F9F480914C2490914D24892BC9F480915C
:1052D0004E2490914F24892B99F4809150249091E1
:1052E0005124892B69F48091522490915324892B65
:1052F00039F48091542490915524892B09F456C196
:1053000086E494E20E94FA1D9093250C8093240C6D
:10531000009769F46091220C7091230C6E5F7F4FAF
:1053200086E494E240E022E00E94F41E29C00E943C
:10533000251E182F092FC091220CD091230C2296E4
:10534000CE01612F702F48E050E00E943263009739
:1053500079F0812F902F9C01D901FE0188E0019006
:105360000D928150E1F7E091240CF091250C07C0DB
:10537000E091240CF091250C82A1882309F4F2A27B
:105380008091210CE0912B0CF0E0E25CFB4DE80FEA
:10539000F11D95A5990F990F990F980F9093210CD6
:1053A00080912B0C482F50E08091210C9A01280FFE
:1053B000311D245D3F4F80912E2490912F2428177A
:1053C000390708F45DCFCA0182599B4D0E944324DE
:1053D0009093290C8093280C892B09F4E7C08091C5
:1053E000462490914724892B59F580914824909127
:1053F0004924892B29F580914A2490914B24892BAB
:10540000F9F480914C2490914D24892BC9F480911A
:105410004E2490914F24892B99F48091502490919F
:105420005124892B69F48091522490915324892B23
:1054300039F48091542490915524892B09F4B6C0F5
:1054400086E494E20E944324892B09F0AFC0809146
:1054500056248F3F09F03FC0809157248230D9F500
:105460008091582490915924892BA9F580915A2430
:1054700090915B24892B79F580915C2490915D2437
:10548000892B49F580915E2490915F24892B19F531
:10549000809160248823F9F4809161248130D9F4CB
:1054A000809162248F3FB9F4E6E5F4E2DF01509782
:1054B00080E10D9001928150E1F780912B0CE82F53
:1054C000F0E0A6E4B4E2E259FB4D80E101900D92D8
:1054D0008150E1F722C086E594E20E9443242091A6
:1054E000280C3091290C2817390709F05FC0E6E530
:1054F000F4E2DF01509780E10D9001928150E1F7D5
:1055000080912B0CE82FF0E0A6E4B4E2E259FB4DC9
:1055100080E101900D928150E1F710922B0C80E612
:1055200080933E2410923F241092412410924024F4
:105530001092422488E2809343248AE38093442497
:105540008FEF8093452488E8809366241092672427
:1055500080EE80936A24E091280CF091290CAEE64D
:10556000B4E2319680E101900D928150E1F7809193
:105570002B0C90E082589B4D62E00E940429E09140
:105580002B0C8E2F90E0FC01EA59FB4D1382128206
:10559000EF010E94292D809590959B838A8380E559
:1055A00090E090932F2480932E2404C010922F24F7
:1055B00010922E24DF91CF911F910F91FF900895AB
:1055C0000F931F93CF93DF938C01EA0110922B0C62
:1055D00080E680933E2410923F2410924124109242
:1055E00040248AE3809344249FEF90934524E6E58A
:1055F000F4E261157105B9F49093562482E0818339
:1056000013821282158214821782168211861086E6
:10561000128681E0838794878D8585878E859F8517
:105620009787868707C0DF01FB0180E101900D921B
:105630008150E1F787E880936624E0912B0CF0E03D
:10564000E25CFB4D11A614A615A616A617A6F096A9
:10565000DE0180E10D9001928150E1F71092422429
:10566000CE010E944324892B09F055C00115110574
:1056700049F0A6E4B4E2F80180E101900D92815076
:10568000E1F706C086E494E266E574E20E942C220B
:105690008091462490914724892B79F58091482464
:1056A00090914924892B49F580914A2490914B246B
:1056B000892B19F580914C2490914D24892BE9F484
:1056C00080914E2490914F24892BB9F480915024DD
:1056D00090915124892B89F48091522490915324E4
:1056E000892B59F48091542490915524892B29F4C5
:1056F00010922F2410922E2447C088E280934324D6
:1057000080912B0C90E082589B4D61E00E9404290F
:1057100080E590E025C01092472410924624109214
:1057200049241092482410924B2410924A2410923B
:105730004D2410924C2410924F2410924E2410921B
:1057400051241092502410925324109252241092FB
:1057500055241092542488E18093432480E490E0FF
:1057600090932F2480932E24E0912B0C8E2F90E089
:10577000FC01EA59FB4D13821282EF010E94292D90
:10578000809590959B838A83DF91CF911F910F9194
:1057900008950F931F93CF93DF939C0180E680932E
:1057A0003E2410923F2410924124109240248AE318
:1057B000809344248FEF80934524E6E5F4E221159D
:1057C0003105B9F48FEF92E09093572480935624DB
:1057D0001382128215821482178216821186108615
:1057E000138612861586148680E091E09787868757
:1057F00007C0DF01F90180E101900D928150E1F7CE
:1058000086E494E266E574E20E942C22E0912B0C7F
:105810002E2F30E0F901E25CFB4D86E880A711A64F
:1058200080919D2284A715A6E901C659DB4D88E029
:1058300097E00E94772D9B838A8380912B0C90E0C8
:10584000FC01E659FB4D14821582168217821086E0
:1058500011861286138628E330E030932F2420939C
:105860002E242CE02093210C8A589B4D61E00E944D
:10587000042980912E2490912F24409690932F24D8
:1058800080932E240091210C005F0093210C10E0E6
:1058900080912B0C90E0F801E25CFB4DE80FF91FC2
:1058A000DF019C9625E024A721E011962C93119707
:1058B00013961C921E921297080F191F06591B4D22
:1058C0006CED75E080E090E00E947B2DF801648330
:1058D00075838683978320912E2430912F24A901EC
:1058E000485F5F4F50932F2440932E248091210CCA
:1058F000885F8093210C20523040309342244852DC
:1059000040934324E0912B0C8E2F90E0FC01EA5948
:10591000FB4D13821282EF010E94292D80959095F4
:105920009B838A83DF91CF911F910F910895FC0192
:105930005381560F50933524272F33274281420F2E
:1059400040933424A181A0933324E081E093322456
:10595000842F90E08217930748F48A2F8F5F8093FB
:105960003324882319F4EF5FE0933224852F90E0ED
:1059700070708617970790F4842F8F5F809334247C
:10598000882361F4809133248F5F809333248823AC
:1059900029F4809132248F5F8093322408959C01F2
:1059A00041505040460F571FFB010EC0708160E010
:1059B0008181DB01A80FB11D2A0F3B1F2A173B076E
:1059C00010F42F5F3F4F3296E417F50778F3E41792
:1059D000F50749F4908180E0280F391F281739070F
:1059E00010F42F5F3F4FC9010895DF93CF9300D08C
:1059F000CDB7DEB73091422420E090912B0C291BCB
:105A0000310990914324290F311D3A83298329813B
:105A10003A81A901480F511DCA0166E474E240E2CF
:105A200050E00E94CF2C49815A8160912B0C70E08C
:105A30006A597B4D0E94CF2C009719F42FEF3FEF4E
:105A400002C0382F292FC9010F900F90CF91DF91FD
:105A500008958AE30E94F52C089586E00E94F52CB3
:105A6000089581E10E94F52C0895AC0110922D0C4F
:105A700020E013C0E22FF0E0322F3F5FEE0FFF1F58
:105A8000E550F64D808191818417950729F4209384
:105A90002D0C118210820895232F243058F3209367
:105AA0002D0C0895BC01809145299091462944967A
:105AB0000E94972CE0914529F0914629809132244B
:105AC000848BE0914529F091462980913324858B80
:105AD000E0914529F091462980913424868BE0910C
