:040000008A11112828
:10000800FE00030EF2000408F3000A08F40083124D
:1000180003137F08F5008A11E5288A111328F601D1
:10002800F701F801AB01AC0183018A11542883124E
:1000380003130717BF30A5002508870502308A116A
:100048007F218A112C308A117F218A1100308A1170
:100058007F218A11013083120313A1000030A2000E
:1000680066308A1187208A11831203131308DD3A38
:10007800031D46280130A0000030A10001308A117C
:10008800B6208A11831203131308EE3A031D0800E1
:100098007F30A0000030A10000308A11B62008008F
:1000A8008A1167218A118A1185218A118A111421DE
:1000B8008A11831203130717BF30AA002A0887057D
:1000C80002308A117F218A1160308A117F218A11BA
:1000D80060308A117F218A11831203130717BF30FA
:1000E800AA002A08870502308A117F218A110F3059
:1000F8008A117F218A1107308A117F218A118A117A
:100108001B208A11832883120313A400AB01AC01BE
:100118000717BF30A3002308870503308A117F2102
:100128008A118312031324088A117F218A118312EA
:1001380003132C08803AA3002208803A2302031DE7
:10014800A72821082B020318080000308A117F21F4
:100158008A11013083120313AB070318AC0A00306D
:10016800AC079B2883120313A3003030A200220897
:100178008316031387048312031320089500A3082A
:10018800031DD128F808031DD1289717EF30A200C6
:10019800220883160313870508008312230803190E
:1001A8000800F708031D0800BF30A20022089705C1
:1001B800DF30A20022088316031387058312031376
:1001C80008000608F10007300310F10CFF3E031D7C
:1001D800E828711CF5288A1175218A11F701F70A98
:1001E8000629831203130608F10005300310F10CE9
:1001F800FF3E031DFA28711C06298A1175218A11F0
:10020800F801F80A0B10750883120313FF0074082D
:100218008A0073088400720E8300FE0E7E0E0900A9
:10022800F03083120313A00020089405DF30A000EB
:100238002008940594167F30A00020088316031325
:100248008705BF3083120313A00020088316031309
:100258008605BF3083120313A000200883160313FA
:1002680087050800F701F801303083120313A00056
:100278002008831603138704FF3092004C30831242
:10028800031397008F309500FD30A00020088C05DF
:1002980008309C000330920012158C180800512970
:1002A800831203179E019F01831203138601FF30F7
:1002B80083160313860083120317961696178B1559
:1002C8000B108B170800DF3083120313A0002008DF
:1002D80094057F30A0002008831603139405141793
:1002E80008008312031395013030F000700883165C
:1002F80003138704080083120313A0002008930047
:0E03080008008A1136218A118A11542108003A
:00000001FF
